:100000000C9446000C9465000C9465000C946500FB
:100010000C9465000C9465000C9465000C946500CC
:100020000C9465000C9465000C9465000C946500BC
:100030000C9465000C940C010C9465000C94650004
:100040000C9465000C9465000C9465000C9465009C
:100050000C9465000C9465000C9465000C9465008C
:100060000C9465000C9465000C9465000C9465007C
:100070000C9465000C9465000C9465000C9465006C
:100080000C9465000C9465000C94650011241FBE4F
:10009000CFEFD0E4DEBFCDBF11E0A0E0B1E0EEE5F0
:1000A000F5E000E00BBF02C007900D92A231B1074E
:1000B000D9F721E0A2E1B1E001C01D92AC31B20755
:1000C000E1F70E946D020C94AD020C940000CF93F6
:1000D000DF9300D01F92CDB7DEB789837B836A831D
:1000E00089818A3031F48A819B81BC018DE00E9434
:1000F000670080EC90E0FC018081882F90E08072A6
:100100009927892BB1F386EC90E02981FC012083AB
:1001100080E090E00F900F900F90DF91CF910895C5
:10012000CF93DF9300D000D0CDB7DEB769837A8359
:100130008B839C8389819A81AB81BC8180930E01E2
:1001400090930F01A0931001B093110180910E01C3
:1001500090910F01A0911001B091110180931301B2
:1001600090931401A0931501B093160100000F9015
:100170000F900F900F90DF91CF910895CF93DF9361
:10018000CDB7DEB781E890E02BE0FC01208388E862
:1001900090E02DE730E0FC01318320838FE690E092
:1001A00022E0FC01208384E890E0FC0111821082AF
:1001B00080910E0190910F01A0911001B091110159
:1001C0008093130190931401A0931501B09316012D
:1001D0008FE590E02FE530E0F90120812068FC01F7
:1001E00020830000DF91CF910895CF93DF93CDB7A7
:1001F000DEB781E890E0FC0110820000DF91CF9132
:100200000895CF93DF93CDB7DEB781E080931201DD
:100210000000DF91CF9108951F920F9200905F0030
:100220000F92112400905B000F922F933F934F93F6
:100230005F936F937F938F939F93AF93BF93EF934E
:10024000FF93CF93DF93CDB7DEB7809113019091E9
:100250001401A0911501B09116010197A109B109EE
:100260008093130190931401A0931501B09316018C
:100270008091130190911401A0911501B091160184
:10028000892B8A2B8B2B91F40E94010180910E0106
:1002900090910F01A0911001B09111018093130171
:1002A00090931401A0931501B09316010000DF9103
:1002B000CF91FF91EF91BF91AF919F918F917F91DE
:1002C0006F915F914F913F912F910F9000925B0042
:1002D0000F9000925F000F901F901895CF93DF93BF
:1002E000CDB7DEB780911801909119018230910548
:1002F00009F467C08330910528F4009759F00197FD
:1003000099F0E0C08330910509F497C0049709F48F
:10031000D0C0D8C081E090E090931901809318017B
:1003200087E080931701D4C080911B01833039F49A
:1003300084E090E09093190180931801C8C08091E7
:100340001B018130B9F480911701893060F48091EC
:1003500017018F5F8093170182E090E0909319015D
:1003600080931801B4C082E090E0909319018093CB
:100370001801ADC080911B018230B9F48091170142
:10038000882361F08091170181508093170183E0E9
:1003900090E0909319018093180199C083E090E058
:1003A000909319018093180192C080911B018330B2
:1003B00009F08DC084E090E09093190180931801BA
:1003C00086C080911B01813019F580911A018A3015
:1003D000C9F480911701893060F4809117018F5F13
:1003E0008093170182E090E09093190180931801A7
:1003F00006C082E090E0909319018093180110925A
:100400001A0166C080911A018F5F80931A0160C043
:1004100080911B018260833049F41092170184E0BF
:1004200090E0909319018093180152C081E090E010
:1004300090931901809318014BC080911B01823069
:1004400019F580911A018A30C9F480911701882327
:1004500061F08091170181508093170183E090E053
:10046000909319018093180106C083E090E0909367
:1004700019018093180110921A012AC080911A0163
:100480008F5F80931A0124C080911B0181608330AB
:1004900049F41092170184E090E090931901809341
:1004A000180116C081E090E0909319018093180123
:1004B0000FC01092170181E090E090931901809392
:1004C000180106C0109219011092180101C0000015
:1004D00080911701DF91CF9108950F931F93CF93D0
:1004E000DF93CDB7DEB781E290E0FC01108282E2BB
:1004F00090E02FEFFC01208384E290E02FEFFC01DD
:10050000208385E290E0FC01108210921701109286
:100510001B0110921A01109219011092180164E641
:1005200070E080E090E00E9490000E94BE0080E2B7
:1005300090E0FC0180818095837080931B0105E22F
:1005400010E00E946E01F80180830000809112018A
:0E0550008823E1F310921201EACFF894FFCF56
:10055E000000000200000000670000000000010023
:02056E0000008B
:00000001FF
