:100000000C9446000C9465000C9465000C946500FB
:100010000C9465000C9465000C9465000C946500CC
:100020000C9465000C9465000C9465000C946500BC
:100030000C9465000C94E3000C9465000C9465002E
:100040000C9465000C9465000C9465000C9465009C
:100050000C9465000C9465000C9465000C9465008C
:100060000C9465000C9465000C9465000C9465007C
:100070000C9465000C9465000C9465000C9465006C
:100080000C9465000C9465000C94650011241FBE4F
:10009000CFEFD0E4DEBFCDBF11E0A0E0B1E0ECEEE9
:1000A000F6E000E00BBF02C007900D92A231B1074D
:1000B000D9F721E0A2E1B1E001C01D92A632B2075A
:1000C000E1F70E941B030C9474030C940000CF937F
:1000D000DF9300D000D0CDB7DEB769837A838B83FE
:1000E0009C8389819A81AB81BC818093000190932C
:1000F0000101A0930201B09303018091000190914E
:100100000101A0910201B09103018093130190932A
:100110001401A0931501B093160100000F900F90E9
:100120000F900F90DF91CF910895CF93DF93CDB7CC
:10013000DEB781E890E02BE0FC01208388E890E0C6
:100140002DE730E0FC01318320838FE690E022E050
:10015000FC01208384E890E0FC01118210828091F0
:10016000000190910101A0910201B09103018093DF
:10017000130190931401A0931501B09316018FE51C
:1001800090E02FE530E0F90120812068FC01208318
:100190000000DF91CF910895CF93DF93CDB7DEB705
:1001A00081E890E0FC0110820000DF91CF9108957A
:1001B000CF93DF93CDB7DEB781E0809312010000CB
:1001C000DF91CF9108951F920F9200905F000F92E0
:1001D000112400905B000F922F933F934F935F93F6
:1001E0006F937F938F939F93AF93BF93EF93FF93FF
:1001F000CF93DF93CDB7DEB78091130190911401B7
:10020000A0911501B09116010197A109B109809340
:10021000130190931401A0931501B09316018091DE
:10022000130190911401A0911501B0911601892B31
:100230008A2B8B2B91F40E94D80080910001909121
:100240000101A0910201B0910301809313019093E9
:100250001401A0931501B09316010000DF91CF9116
:10026000FF91EF91BF91AF919F918F917F916F918E
:100270005F914F913F912F910F9000925B000F90F3
:1002800000925F000F901F901895CF93DF9300D0DE
:100290001F92CDB7DEB789837B836A8389818A30D9
:1002A00031F48A819B81BC018DE00E94450180EC84
:1002B00090E0FC018081882F90E080729927892B43
:1002C000B1F386EC90E02981FC01208380E090E08E
:1002D0000F900F900F90DF91CF910895CF93DF9300
:1002E00000D01F92CDB7DEB78B831A82198227C048
:1002F0008BE290E028E0FC0120838BE290E02BE28F
:1003000030E0F9012081422F2B81222F30E009803B
:1003100002C0359527950A94E2F72170242BFC0141
:1003200020838BE290E02BE230E0F9012081226013
:10033000FC01208389819A8101969A83898389812E
:100340009A810897ACF28BE290E02BE230E0F90161
:1003500020812460FC0120838BE290E0FC0110826C
:1003600000000F900F900F90DF91CF910895CF93E1
:10037000DF9300D0CDB7DEB79A83898380E290E027
:10038000FC018081882F90E08170992721E0892BE2
:1003900009F020E0822F8093170180E290E0FC01B9
:1003A0008081809582708093180180E290E0FC014A
:1003B0008081809584708093190180E290E0FC0137
:1003C00080818095887080931A0189819A8181301B
:1003D000910509F496C08230910509F4AAC0892BD1
:1003E00009F000C1809117018823E9F0809118017C
:1003F0008823C9F4809119018823A9F480911A01F6
:10040000882389F480911D01853068F48091220150
:10041000880F8093220181E08093210182E090E0A7
:100420009A8389836DC0809117018823E9F48091B4
:1004300018018823C9F0809119018823A9F48091BB
:100440001A01882389F480911D01823068F080911F
:10045000220186958093220181E08093240182E02D
:1004600090E09A8389834CC080911701882309F515
:10047000809118018823E9F4809119018823C9F03B
:1004800080911A018823A9F480912001833088F497
:1004900080911E01882F90E0880F991F81608093C2
:1004A0001E0181E080931B0182E090E09A838983A2
:1004B00027C080911701882309F097C08091180107
:1004C000882309F092C080911901882309F08DC01A
:1004D00080911A01882309F488C08091200182301C
:1004E00008F483C080911E018695806F80931E0161
:1004F00081E080931C0182E090E09A83898375C03B
:1005000074C080911701882361F4809118018823B9
:1005100041F480911901882321F480911A018823E4
:1005200029F081E090E09A83898362C01A8219825F
:100530005FC080912101882389F080912501880F77
:100540008093250180911D018F5F80931D01109282
:10055000210181E090E09A83898349C08091240140
:10056000882389F0809125018695809325018091CB
:100570001D01815080931D011092240181E090E0C3
:100580009A83898334C080911B018823A9F08091CC
:100590002301882F90E0880F991F816080932301A9
:1005A000809120018F5F8093200110921B0181E0D8
:1005B00090E09A8389831BC080911C018823B9F045
:1005C000809123018695806F809323018091200183
:1005D00081508093200110921C0181E090E09A8369
:1005E000898305C01A82198203C0000001C000007F
:1005F00080911F018170882359F088E290E020915A
:100600002201FC01208380911E010E946E010CC01A
:1006100088E290E020912501FC0120838091230154
:100620000E946E0110921F0189819A810F900F9094
:10063000DF91CF910895CF93DF9300D0CDB7DEB790
:100640008AE290E02FEFFC0120838BE290E0FC0136
:10065000108287E290E02FEFFC01208388E290E097
:10066000FC01108281E290E0FC01108282E290E0C5
:100670002FEFFC01208310921F0110922101109294
:10068000240110921B0110921C0183E080931D0134
:1006900082E0809320018CE38093220184E28093A6
:1006A000250185EF80931E018BE1809323011A823F
:1006B000198261E070E080E090E00E9467000E9493
:1006C000950089819A810E94B7019A8389838091DC
:1006D0001F018F5F80931F0100008091120188230A
:0C06E000E1F310921201EDCFF894FFCF6F
:1006EC0001000000000000020000000045010000B5
:0206FC000000FC
:00000001FF
