:100000000C9446000C9465000C9465000C946500FB
:100010000C9465000C9465000C9465000C946500CC
:100020000C9465000C9465000C9465000C946500BC
:100030000C9465000C9465000C9465000C946500AC
:100040000C9465000C9465000C9465000C9465009C
:100050000C9465000C9465000C9465000C9465008C
:100060000C9465000C9465000C9465000C9465007C
:100070000C9465000C9465000C9465000C9465006C
:100080000C9465000C9465000C94650011241FBE4F
:10009000CFEFD0E4DEBFCDBF11E0A0E0B1E0EAECED
:1000A000F2E000E00BBF02C007900D92AE30B10746
:1000B000D9F721E0AEE0B1E001C01D92A331B20753
:1000C000E1F70E942D010C9463010C940000CF9382
:1000D000DF9300D01F92CDB7DEB789837B836A831D
:1000E00089818A3031F48A819B81BC018DE00E9434
:1000F000670080EC90E0FC018081882F90E08072A6
:100100009927892BB1F386EC90E02981FC012083AB
:1001100080E090E00F900F900F90DF91CF910895C5
:10012000CF93DF93CDB7DEB780911001909111018D
:1001300081309105B1F08130910530F08230910528
:10014000B1F10397E9F078C081E090E0909311015C
:100150008093100181E080930F0181E080930E0174
:1001600077C080911201813009F06DC083E090E08A
:10017000909311018093100181E080930F0163C07F
:1001800080911201813039F483E090E09093110165
:10019000809310015AC080911201882309F055C044
:1001A00082E090E090931101809310014EC0809105
:1001B0001201813009F04BC083E090E0909311016F
:1001C0008093100180910F01803258F480910E01CC
:1001D000882339F080910F01880F880F80930F01D9
:1001E0000EC080910F01803450F480910E0188235D
:1001F00031F480910F01880F880F80930F01809157
:100200000E01882351F080910F01803230F010925E
:100210000E0182E080930F011AC080910E018823A5
:10022000B1F480910F01803490F081E080930E0151
:1002300081E080930F010BC081E090E09093110169
:100240008093100105C0000003C0000001C0000041
:1002500080910F01DF91CF9108950F931F93CF935A
:10026000DF93CDB7DEB781E290E0FC01108282E23D
:1002700090E02FEFFC01208384E290E02FEFFC015F
:10028000208385E290E0FC01108210920F01109211
:100290001201109211011092100180E290E0FC0115
:1002A0008081882F90E08170992721E0892B09F0C7
:1002B00020E0822F8093120105E210E00E9490005E
:0A02C000F8018083EACFF894FFCF25
:0E02CA000000000200000000670000000000BD
:00000001FF
