:100000000C9446000C9465000C9465000C946500FB
:100010000C9465000C9465000C9465000C946500CC
:100020000C9465000C9465000C9465000C946500BC
:100030000C9465000C94E3000C9465000C9465002E
:100040000C9465000C9465000C9465000C9465009C
:100050000C9465000C9465000C9465000C9465008C
:100060000C9465000C9465000C9465000C9465007C
:100070000C9465000C9465000C9465000C9465006C
:100080000C9465000C9465000C94650011241FBE4F
:10009000CFEFD0E4DEBFCDBF11E0A0E0B1E0E2EEF3
:1000A000F5E000E00BBF02C007900D92A231B1074E
:1000B000D9F721E0A2E1B1E001C01D92AD31B20754
:1000C000E1F70E94BF020C94EF020C940000CF9362
:1000D000DF9300D000D0CDB7DEB769837A838B83FE
:1000E0009C8389819A81AB81BC818093000190932C
:1000F0000101A0930201B09303018091000190914E
:100100000101A0910201B09103018093130190932A
:100110001401A0931501B093160100000F900F90E9
:100120000F900F90DF91CF910895CF93DF93CDB7CC
:10013000DEB781E890E02BE0FC01208388E890E0C6
:100140002DE730E0FC01318320838FE690E022E050
:10015000FC01208384E890E0FC01118210828091F0
:10016000000190910101A0910201B09103018093DF
:10017000130190931401A0931501B09316018FE51C
:1001800090E02FE530E0F90120812068FC01208318
:100190000000DF91CF910895CF93DF93CDB7DEB705
:1001A00081E890E0FC0110820000DF91CF9108957A
:1001B000CF93DF93CDB7DEB781E0809312010000CB
:1001C000DF91CF9108951F920F9200905F000F92E0
:1001D000112400905B000F922F933F934F935F93F6
:1001E0006F937F938F939F93AF93BF93EF93FF93FF
:1001F000CF93DF93CDB7DEB78091130190911401B7
:10020000A0911501B09116010197A109B109809340
:10021000130190931401A0931501B09316018091DE
:10022000130190911401A0911501B0911601892B31
:100230008A2B8B2B91F40E94D80080910001909121
:100240000101A0910201B0910301809313019093E9
:100250001401A0931501B09316010000DF91CF9116
:10026000FF91EF91BF91AF919F918F917F916F918E
:100270005F914F913F912F910F9000925B000F90F3
:1002800000925F000F901F901895CF93DF9300D0DE
:100290001F92CDB7DEB789837B836A8389818A30D9
:1002A00031F48A819B81BC018DE00E94450180EC84
:1002B00090E0FC018081882F90E080729927892B43
:1002C000B1F386EC90E02981FC01208380E090E08E
:1002D0000F900F900F90DF91CF910895CF93DF9300
:1002E00000D000D0CDB7DEB79C838B831A821982F1
:1002F00025C088E290E028E0FC01208388E290E0BD
:1003000028E230E0F90140812B813C81098002C064
:10031000369527950A94E2F72170242BFC0120835F
:1003200088E290E028E230E0F90120812260FC01BF
:10033000208389819A8101969A83898389819A8110
:100340000897BCF288E290E028E230E0F9012081D1
:100350002460FC01208388E290E028E230E0F9018B
:1003600020812460FC01208388E090E09A838983C7
:1003700025C088E290E028E0FC01208388E290E03C
:1003800028E230E0F90140812B813C81098002C0E4
:10039000369527950A94E2F72170242BFC012083DF
:1003A00088E290E028E230E0F90120812260FC013F
:1003B000208389819A8101969A83898389819A8190
:1003C0004097BCF288E290E028E230E0F901208119
:1003D0002460FC01208388E290E028E230E0F9010B
:1003E00020812460FC01208388E290E0FC011082DF
:1003F00000000F900F900F900F90DF91CF91089514
:10040000CF93DF93CDB7DEB780E290E0FC0180812F
:10041000882F90E08170992721E0892B09F020E056
:10042000822F8093170180E290E0FC01808180950B
:10043000827080931C018091180190911901813084
:100440009105C1F08130910540F08230910509F4A9
:1004500064C0059709F470C07EC081E090E090937D
:100460001901809318018FEF92E090931B01809304
:100470001A017BC0809117018823D9F080911C015B
:100480008823B9F482E090E09093190180931801D9
:1004900080911A0190911B01019609F43DC0809151
:1004A0001A0190911B01019690931B0180931A01F0
:1004B00033C0809117018823D1F480911C018823D7
:1004C000B1F082E090E0909319018093180180913F
:1004D0001A0190911B01892BF9F080911A019091DA
:1004E0001B01019790931B0180931A0115C0809105
:1004F00017018823A9F180911C01882389F182E0EA
:1005000090E090931901809318018FEF92E09093FF
:100510001B0180931A0124C023C0809117018823F6
:1005200009F580911C018823E9F485E090E090931F
:1005300019018093180116C0809117018823A1F436
:1005400080911C01882381F481E090E0909319014F
:100550008093180109C0109219011092180105C06A
:10056000000003C0000001C0000080911A019091BA
:100570001B010E946E010000DF91CF910895CF937F
:10058000DF93CDB7DEB781E290E0FC01108282E21A
:1005900090E02FEFFC01208387E290E02FEFFC0139
:1005A000208388E290E0FC01108210921B011092DF
:1005B0001A01109219011092180164E670E080E0AF
:1005C00090E00E9467000E9495000E9400020000D7
:1005D000809112018823E1F310921201F6CFF89472
:0205E000FFCF4B
:1005E20001000000000000020000000045010000C0
:0205F200000007
:00000001FF
