:100000000C9446000C9465000C9465000C946500FB
:100010000C9465000C9465000C9465000C946500CC
:100020000C9465000C9465000C9465000C946500BC
:100030000C9465000C94E3000C9465000C9465002E
:100040000C9465000C9465000C9465000C9465009C
:100050000C9465000C9465000C9465000C9465008C
:100060000C9465000C9465000C9465000C9465007C
:100070000C9465000C9465000C9465000C9465006C
:100080000C9465000C9465000C94650011241FBE4F
:10009000CFEFD0E4DEBFCDBF11E0A0E0B1E0EEEFE6
:1000A000F9E000E00BBF02C007900D92A231B1074A
:1000B000D9F721E0A2E1B1E001C01D92A332B2075D
:1000C000E1F70E948B040C94FD040C940000CF9384
:1000D000DF9300D000D0CDB7DEB769837A838B83FE
:1000E0009C8389819A81AB81BC818093000190932C
:1000F0000101A0930201B09303018091000190914E
:100100000101A0910201B09103018093130190932A
:100110001401A0931501B093160100000F900F90E9
:100120000F900F90DF91CF910895CF93DF93CDB7CC
:10013000DEB781E890E02BE0FC01208388E890E0C6
:100140002DE730E0FC01318320838FE690E022E050
:10015000FC01208384E890E0FC01118210828091F0
:10016000000190910101A0910201B09103018093DF
:10017000130190931401A0931501B09316018FE51C
:1001800090E02FE530E0F90120812068FC01208318
:100190000000DF91CF910895CF93DF93CDB7DEB705
:1001A00081E890E0FC0110820000DF91CF9108957A
:1001B000CF93DF93CDB7DEB781E0809312010000CB
:1001C000DF91CF9108951F920F9200905F000F92E0
:1001D000112400905B000F922F933F934F935F93F6
:1001E0006F937F938F939F93AF93BF93EF93FF93FF
:1001F000CF93DF93CDB7DEB78091130190911401B7
:10020000A0911501B09116010197A109B109809340
:10021000130190931401A0931501B09316018091DE
:10022000130190911401A0911501B0911601892B31
:100230008A2B8B2B91F40E94D80080910001909121
:100240000101A0910201B0910301809313019093E9
:100250001401A0931501B09316010000DF91CF9116
:10026000FF91EF91BF91AF919F918F917F916F918E
:100270005F914F913F912F910F9000925B000F90F3
:1002800000925F000F901F901895CF93DF9300D0DE
:100290001F92CDB7DEB789837B836A8389818A30D9
:1002A00031F48A819B81BC018DE00E94450180EC84
:1002B00090E0FC018081882F90E080729927892B43
:1002C000B1F386EC90E02981FC01208380E090E08E
:1002D0000F900F900F90DF91CF910895CF93DF9300
:1002E000CDB7DEB78AE790E02AE730E0F901208158
:1002F000206EFC0120830000DF91CF910895CF9301
:10030000DF931F92CDB7DEB789838CE790E0298118
:10031000283028F02CE730E0F901208101C0298144
:10032000FC0120831092170106C000008091170184
:100330008F5F80931701809117018F30B0F3000019
:100340000F90DF91CF910895CF93DF9300D0CDB779
:10035000DEB79A83898389819A81009721F001977A
:1003600009F47BC27DC288E790E0FC018081918125
:100370009093200180931F0180911E01813009F02C
:100380002BC180911B0190911C019C01285D3F4F66
:1003900080911F01909120012817390708F087C02C
:1003A00080911801883008F082C080911D01880F6B
:1003B00080931D01809118018F5F80931801209117
:1003C0001F013091200180911B0190911C01A90116
:1003D000481B590BCA018436910538F484EF91E02B
:1003E00090931A018093190130C220911F0130911E
:1003F000200180911B0190911C01F901E81BF90B70
:10040000CF0184369105B0F020911F013091200179
:1004100080911B0190911C01A901481B590BCA0135
:10042000883C910538F48AEF90E090931A0180930C
:1004300019013CC020911F013091200180911B01C6
:1004400090911C01F901E81BF90BCF01883C910543
:10045000B0F020911F013091200180911B019091FB
:100460001C01A901481B590BCA018C32914038F478
:1004700084E690E090931A018093190117C02091AF
:100480001F013091200180911B0190911C01F90105
:10049000E81BF90BCF018C32914008F4D6C18EE1F4
:1004A00090E090931A0180931901CFC1CEC1809141
:1004B0001B0190911C019C012852310980911F0160
:1004C000909120018217930708F0C2C18091180112
:1004D000823008F4BDC180911D01869580931D0175
:1004E0008091180181508093180120911B01309157
:1004F0001C0180911F0190912001A901481B590BFB
:10050000CA018436910538F484EF91E090931A0182
:10051000809319019DC120911B0130911C01809194
:100520001F0190912001F901E81BF90BCF018436DE
:100530009105B0F020911B0130911C0180911F01A9
:1005400090912001A901481B590BCA01883C9105D3
:1005500038F48AEF90E090931A018093190178C1E2
:1005600020911B0130911C0180911F01909120016D
:10057000F901E81BF90BCF01883C9105B0F02091FF
:100580001B0130911C0180911F0190912001A90154
:10059000481B590BCA018C32914038F484E690E034
:1005A00090931A018093190153C120911B0130913E
:1005B0001C0180911F0190912001F901E81BF90BAA
:1005C000CF018C32914008F443C18EE190E09093CA
:1005D0001A01809319013CC180911E01823009F0FB
:1005E00037C180911B0190911C019C01285D3F4FF8
:1005F00080911F01909120012817390708F08CC0C5
:1006000080912101853008F087C080912201880FF8
:100610008093220180912201816080932201809148
:1006200021018F5F8093210120911F0130912001D2
:1006300080911B0190911C01A901481B590BCA0113
:100640008436910538F484EF91E090931A018093F9
:100650001901FDC020911F013091200180911B01E3
:1006600090911C01F901E81BF90BCF01843691052B
:10067000B0F020911F013091200180911B019091D9
:100680001C01A901481B590BCA01883C910538F48B
:100690008AEF90E090931A01809319013CC0209159
:1006A0001F013091200180911B0190911C01F901E3
:1006B000E81BF90BCF01883C9105B0F020911F0198
:1006C0003091200180911B0190911C01A901481BD0
:1006D000590BCA018C32914038F484E690E0909333
:1006E0001A018093190117C020911F013091200138
:1006F00080911B0190911C01F901E81BF90BCF01BE
:100700008C32914008F4A3C08EE190E090931A01DE
:10071000809319019CC09BC080911B0190911C018A
:100720009C012852310980911F019091200182176C
:10073000930708F08DC080912101823008F488C0B1
:100740008091220186958093220180912201806808
:100750008093220180912101815080932101209179
:100760001B0130911C0180911F0190912001A90172
:10077000481B590BCA018436910538F484EF91E087
:1007800090931A018093190163C020911B0130914D
:100790001C0180911F0190912001F901E81BF90BC8
:1007A000CF0184369105B0F020911B0130911C01DE
:1007B00080911F0190912001A901481B590BCA018A
:1007C000883C910538F48AEF90E090931A01809369
:1007D00019013EC020911B0130911C0180911F0125
:1007E00090912001F901E81BF90BCF01883C91059C
:1007F000B0F020911B0130911C0180911F0190915C
:100800002001A901481B590BCA018C32914038F4D0
:1008100084E690E090931A018093190119C0209109
:100820001B0130911C0180911F0190912001F90161
:10083000E81BF90BCF018C32914050F08EE190E033
:1008400090931A018093190103C0000001C00000B9
:1008500081E090E09A83898306C01A82198203C0DE
:100860001A821982000088E290E020911D01FC01AB
:1008700020838BE290E020912201FC01208389817A
:100880009A810F900F90DF91CF910895CF93DF93CE
:1008900000D0CDB7DEB79A83898389819A81813070
:1008A000910569F08230910591F0892B31F582E054
:1008B00090E09A83898381E00E947F0125C082E0D5
:1008C00090E09A83898380E00E947F011DC080911F
:1008D0001E01813041F481E090E09A83898382E0B7
:1008E00080931E0110C080911E01823061F41A8233
:1008F000198281E080931E0106C01A82198281E06C
:1009000080931E0101C0000089819A810F900F9091
:10091000DF91CF910895CF93DF9300D000D0CDB772
:10092000DEB787E290E02FEFFC01208388E290E0C1
:10093000FC0110828AE290E02FEFFC0120838BE221
:1009400090E0FC0110821A8219821C821B8288EEC0
:1009500093E090931A018093190181E080931D0127
:100960008FEE809322011092200110921F0180913E
:100970001F019091200190931C0180931B0181E045
:100980008093180185E08093210181E080931E010E
:1009900080E00E947F010E946E0161E070E080E0D3
:1009A00090E00E9467000E94950088E790E0FC01BB
:1009B0008081918190931C0180931B01809119018A
:1009C00090911A01CC01A0E0B0E0BC01CD010E94E1
:1009D000670089819A810E94A4019A8389838B810F
:1009E0009C810E9446049C838B83000080911201AD
:0E09F0008823E1F310921201E1CFF894FFCFBB
:1009FE0001000000000000020000000045010000A0
:020A0E000000E6
:00000001FF
