:100000000C9446000C9465000C9465000C946500FB
:100010000C9465000C9465000C9465000C946500CC
:100020000C9465000C9465000C9465000C946500BC
:100030000C9465000C9465000C9465000C946500AC
:100040000C9465000C9465000C9465000C9465009C
:100050000C9465000C9465000C9465000C9465008C
:100060000C9465000C9465000C9465000C9465007C
:100070000C9465000C9465000C9465000C9465006C
:100080000C9465000C9465000C94650011241FBE4F
:10009000CFEFD0E4DEBFCDBF11E0A0E0B1E0ECECEB
:1000A000F8E000E00BBF02C007900D92AE32B1073E
:1000B000D9F721E0AEE2B1E001C01D92A833B2074A
:1000C000E1F70E94B5020C9464040C940000CF93F5
:1000D000DF9300D01F92CDB7DEB789837B836A831D
:1000E00089818A3031F48A819B81BC018DE00E9434
:1000F000670080EC90E0FC018081882F90E08072A6
:100100009927892BB1F386EC90E02981FC012083AB
:1001100080E090E00F900F900F90DF91CF910895C5
:100120000F931F93CF93DF9300D000D0CDB7DEB7EE
:1001300069837A838B839C8380912E0190912F0118
:10014000A0913001B09131019C01AD0169817A81AA
:100150008B819C810E94D002882309F476C020E024
:1001600030E0A90169817A818B819C810E94D00253
:10017000882351F481E990E021E930E0F901208100
:100180002870FC01208309C081E990E021E930E07A
:10019000F90120812360FC01208328E539E344E74D
:1001A0005FE369817A818B819C810E94D0028823E0
:1001B00044F488E990E02FEF3FEFFC013183208386
:1001C00034C020E034E244EF56E469817A818B81C7
:1001D0009C810E94F203181634F488E990E0FC0137
:1001E0001182108222C008E910E020E030E040E0F7
:1001F00053E469817A818B819C810E94F703DC0141
:10020000CB019C01AD0160E074E284EF9AE40E94AE
:10021000D502DC01CB01BC01CD010E944703DC010A
:10022000CB010197F8019183808386E490E0FC0183
:10023000108289819A81AB81BC8180932E01909339
:100240002F01A0933001B093310100000F900F9067
:100250000F900F90DF91CF911F910F910895CF9341
:10026000DF93CDB7DEB780E990E020E4FC01208386
:1002700081E990E02BE0FC01208360E070E0CB019D
:100280000E9490000000DF91CF910895CF93DF93FB
:10029000CDB7DEB780E990E0FC01108281E990E003
:1002A000FC0110820000DF91CF910895CF93DF937E
:1002B000CDB7DEB780E290E0FC018081882F90E02E
:1002C0008170992721E0892B09F020E0822F80930B
:1002D000320180E290E0FC01808180958270809301
:1002E000370180E290E0FC018081809584708093EA
:1002F000350180913301909134018230910509F4E8
:100300003EC08330910528F4009771F00197A9F061
:1003100020C18430910509F40BC18430910508F4A3
:10032000CEC00597D9F015C181E090E090933401DB
:10033000809333011092360114C160E070E0CB016C
:100340000E94900080913201882309F407C185E062
:1003500090E0909334018093330100C18091320189
:10036000882339F085E090E0909334018093330145
:1003700006C082E090E09093340180933301809135
:100380003201882311F5809137018823F1F480919F
:1003900035018823D1F482E090E09093340180937A
:1003A000330180913601882F90E0880F991F880FC4
:1003B000991F825F9E4FFC0180819181A281B38150
:1003C000BC01CD010E94900079C080913201882348
:1003D000A1F080913701882381F480913501882331
:1003E00061F484E090E0909334018093330160E005
:1003F00070E0CB010E94900061C08091320188239F
:1004000059F580913701882339F18091350188238E
:1004100019F583E090E0909334018093330180914B
:100420003601873028F4809136018F5F8093360142
:1004300080913601882F90E0880F991F880F991FAF
:10044000825F9E4FFC0180819181A281B381BC01BA
:10045000CD010E94900032C080913201882309F0C2
:100460007FC080913701882309F07AC080913501DF
:10047000882309F475C083E090E090933401809361
:10048000330180913601882329F080913601815013
:100490008093360180913601882F90E0880F991F54
:1004A000880F991F825F9E4FFC0180819181A281FC
:1004B000B381BC01CD010E94900052C051C0809117
:1004C0003201882341F480913701882321F0809103
:1004D0003501882361F080913201882311F58091E4
:1004E00037018823F1F4809135018823D1F083E02E
:1004F00090E0909334018093330180913601882FEE
:1005000090E0880F991F880F991F825F9E4FFC0112
:1005100080819181A281B381BC01CD010E949000B4
:1005200020C082E090E0909334018093330119C0A1
:1005300080913201882339F084E090E09093340177
:100540008093330106C081E090E090933401809362
:100550003301109234011092330103C0000001C036
:1005600000000000DF91CF910895CF93DF93CDB7C6
:10057000DEB781E290E0FC01108282E290E02FEF92
:10058000FC01208384E290E02FEFFC01208385E2D0
:1005900090E0FC0110820E942F010E945601FDCFC5
:1005A0000E947D0308F481E008950E94E9020C9402
:1005B000B8030E94B10358F00E94AA0340F029F446
:1005C0005F3F29F00C94A10351110C94EC030C949F
:1005D000A7030E94C90368F39923B1F3552391F34C
:1005E000951B550BBB27AA2762177307840738F0A2
:1005F0009F5F5F4F220F331F441FAA1FA9F335D0FF
:100600000E2E3AF0E0E832D091505040E695001CB2
:10061000CAF72BD0FE2F29D0660F771F881FBB1F6C
:10062000261737074807AB07B0E809F0BB0B802D4A
:10063000BF01FF2793585F4F3AF09E3F510578F076
:100640000C94A1030C94EC035F3FE4F3983ED4F3C5
:10065000869577956795B795F7959F5FC9F7880F4A
:10066000911D9695879597F90895E1E0660F771F9C
:10067000881FBB1F621773078407BA0720F0621B2D
:10068000730B840BBA0BEE1F88F7E09508950E9458
:100690004E036894B1110C94EC0308950E94D103A9
:1006A00088F09F5798F0B92F9927B751B0F0E1F033
:1006B000660F771F881F991F1AF0BA95C9F714C0E3
:1006C000B13091F00E94EB03B1E008950C94EB037C
:1006D000672F782F8827B85F39F0B93FCCF386951C
:1006E00077956795B395D9F73EF490958095709579
:1006F00061957F4F8F4F9F4F0895990F0008550FB9
:10070000AA0BE0E8FEEF16161706E807F907C0F097
:1007100012161306E407F50798F0621B730B840B9F
:10072000950B39F40A2661F0232B242B252B21F479
:1007300008950A2609F4A140A6958FEF811D811D19
:10074000089597F99F6780E870E060E008959FEF53
:1007500080EC089500240A94161617061806090658
:10076000089500240A941216130614060506089527
:10077000092E0394000C11F4882352F0BB0F40F4AF
:10078000BF2B11F460FF04C06F5F7F4F8F4F9F4FEF
:10079000089557FD9058440F551F59F05F3F71F071
:1007A0004795880F97FB991F61F09F3F79F08795D8
:1007B0000895121613061406551FF2CF4695F1DF61
:1007C00008C0161617061806991FF1CF86957105F1
:1007D000610508940895E894BB2766277727CB0125
:1007E00097F908950E947D0308F48FEF08950E9401
:1007F0000A040C94B8030E94AA0338F00E94B103C3
:1008000020F0952311F00C94A1030C94A70311245C
:100810000C94EC030E94C90370F3959FC1F3950FEC
:1008200050E0551F629FF001729FBB27F00DB11D74
:10083000639FAA27F00DB11DAA1F649F6627B00D04
:10084000A11D661F829F2227B00DA11D621F739FED
:10085000B00DA11D621F839FA00D611D221F749FFB
:100860003327A00D611D231F849F600D211D822F42
:10087000762F6A2F11249F5750409AF0F1F0882369
:100880004AF0EE0FFF1FBB1F661F771F881F915096
:100890005040A9F79E3F510580F00C94A1030C94A1
:1008A000EC035F3FE4F3983ED4F386957795679524
:1008B000B795F795E7959F5FC1F7FE2B880F911DC0
:0C08C0009695879597F90895F894FFCF5E
:1008CC000000000200000000670000000000A4D03F
:1008DC0082437BD49243A4D0A443719DAE430000C9
:0E08EC00C4430000DC43A4F0F64300D00244F5
:00000001FF
