:100000000C9446000C945D000C945D000C945D0013
:100010000C945D000C945D000C945D000C945D00EC
:100020000C945D000C945D000C945D000C945D00DC
:100030000C945D000C945D000C945D000C945D00CC
:100040000C945D000C945D000C945D000C945D00BC
:100050000C945D000C945D000C945D000C945D00AC
:100060000C945D000C945D000C945D000C945D009C
:100070000C945D000C945D000C945D000C945D008C
:100080000C945D000C945D000C945D0011241FBE67
:10009000CFEFD0E4DEBFCDBF11E0A0E0B1E0E4E3FC
:1000A000F2E000E00BBF02C007900D92AE30B10746
:1000B000D9F70E9499000C9418010C940000CF937A
:1000C000DF9300D01F92CDB7DEB789837B836A832D
:1000D00089818A3031F48A819B81BC018DE00E9444
:1000E0005F0080EC90E0FC018081882F90E08072BE
:1000F0009927892BB1F386EC90E02981FC012083BC
:1001000080E090E00F900F900F90DF91CF910895D5
:10011000CF93DF93CDB7DEB78AE790E02AE730E0F0
:10012000F9012081206EFC0120830000DF91CF9136
:100130000895CF93DF9300D01F92CDB7DEB781E251
:1001400090E0FC01108282E290E02FEFFC0120831E
:1001500084E290E02FEFFC01208385E290E0FC0137
:1001600010821B821A8219820E94880088E790E020
:10017000FC01808191819B838A838A819B81813963
:10018000910518F081E089834DC08A819B81813976
:10019000910540F48A819B818138910518F083E0B4
:1001A000898340C08A819B818138910540F48A818E
:1001B0009B818F36910518F087E0898333C08A814F
:1001C0009B818F36910540F48A819B818D35910505
:1001D00018F08FE0898326C08A819B818D35910537
:1001E00040F48A819B818B34910518F08FE18983DB
:1001F00019C08A819B818B34910538F48A819B8157
:10020000C99718F08FE389830DC08A819B81C997B4
:1002100038F48A819B81879718F08FE7898302C021
:100220008FEF898385E290E02981FC0120839ECFB6
:04023000F894FFCF70
:0E02340000000002000000005F00000000005B
:00000001FF
