:100000000C9446000C9465000C9465000C946500FB
:100010000C9465000C9465000C9465000C946500CC
:100020000C9465000C9465000C9465000C946500BC
:100030000C9465000C94E3000C9465000C9465002E
:100040000C9465000C9465000C9465000C9465009C
:100050000C9465000C9465000C9465000C9465008C
:100060000C9465000C9465000C9465000C9465007C
:100070000C9465000C9465000C9465000C9465006C
:100080000C9465000C9465000C94650011241FBE4F
:10009000CFEFD0E4DEBFCDBF11E0A0E0B1E0E0E4FF
:1000A000F6E000E00BBF02C007900D92A231B1074D
:1000B000D9F721E0A2E1B1E001C01D92A532B2075B
:1000C000E1F70E9474020C941E030C940000CF937D
:1000D000DF9300D000D0CDB7DEB769837A838B83FE
:1000E0009C8389819A81AB81BC818093000190932C
:1000F0000101A0930201B09303018091000190914E
:100100000101A0910201B09103018093130190932A
:100110001401A0931501B093160100000F900F90E9
:100120000F900F90DF91CF910895CF93DF93CDB7CC
:10013000DEB781E890E02BE0FC01208388E890E0C6
:100140002DE730E0FC01318320838FE690E022E050
:10015000FC01208384E890E0FC01118210828091F0
:10016000000190910101A0910201B09103018093DF
:10017000130190931401A0931501B09316018FE51C
:1001800090E02FE530E0F90120812068FC01208318
:100190000000DF91CF910895CF93DF93CDB7DEB705
:1001A00081E890E0FC0110820000DF91CF9108957A
:1001B000CF93DF93CDB7DEB781E0809312010000CB
:1001C000DF91CF9108951F920F9200905F000F92E0
:1001D000112400905B000F922F933F934F935F93F6
:1001E0006F937F938F939F93AF93BF93EF93FF93FF
:1001F000CF93DF93CDB7DEB78091130190911401B7
:10020000A0911501B09116010197A109B109809340
:10021000130190931401A0931501B09316018091DE
:10022000130190911401A0911501B0911601892B31
:100230008A2B8B2B91F40E94D80080910001909121
:100240000101A0910201B0910301809313019093E9
:100250001401A0931501B09316010000DF91CF9116
:10026000FF91EF91BF91AF919F918F917F916F918E
:100270005F914F913F912F910F9000925B000F90F3
:1002800000925F000F901F901895CF93DF9300D0DE
:100290001F92CDB7DEB789837B836A8389818A30D9
:1002A00031F48A819B81BC018DE00E94450180EC84
:1002B00090E0FC018081882F90E080729927892B43
:1002C000B1F386EC90E02981FC01208380E090E08E
:1002D0000F900F900F90DF91CF910895CF93DF9300
:1002E000CDB7DEB780912301909124018130910533
:1002F00099F08130910530F082309105B9F0039783
:10030000F9F028C081E090E09093240180932301CC
:1003100081E080931F0124C082E090E0909324014B
:100320008093230182E080931F011AC083E090E054
:10033000909324018093230184E080931F0110C0D7
:1003400081E090E0909324018093230181E08093E9
:100350001F0106C0109224011092230110921F0168
:100360000000DF91CF910895CF93DF93CDB7DEB733
:1003700080911801909119018130910581F08130AF
:10038000910518F00297A9F01DC082E090E09093CB
:1003900019018093180188E080931C0119C082E044
:1003A00090E0909319018093180188E080931C01DC
:1003B0000FC081E090E09093190180931801109292
:1003C0001C0106C0109219011092180110921C0114
:1003D0000000DF91CF910895CF93DF93CDB7DEB7C3
:1003E0008091210190912201892B79F410922201B0
:1003F0001092210190911F0180911C01982B8091F6
:100400001701892B80931D0104C0109222011092C4
:10041000210185E290E020911D01FC012083000074
:10042000DF91CF910895CF93DF93CDB7DEB780E210
:1004300090E0FC0180818095847080932001809100
:100440001A0190911B018130910589F0813091054D
:1004500018F0029761F13CC082E090E090931B019C
:1004600080931A011092170110921E0139C08091D9
:100470002001882379F080911E01882359F082E0C1
:1004800090E090931B0180931A0110921701109233
:100490001E0123C0809120018823F9F482E090E0BE
:1004A00090931B0180931A011092170116C080913E
:1004B00020018823A1F081E090E090931B018093BC
:1004C0001A0180E18093170181E080931E0107C02B
:1004D00010921B0110921A0103C0000001C000001D
:1004E0000000DF91CF910895CF93DF93CDB7DEB7B2
:1004F00060970FB6F894DEBF0FBECDBF81E290E0EB
:10050000FC01108282E290E02FEFFC01208384E264
:1005100090E02FEFFC01208385E290E0FC01108247
:1005200019821A821B821C821D821E821F821886DB
:1005300019861A861B861C8682E090E0A0E0B0E057
:100540008D879E87AF87B88B62E070E080E090E097
:100550000E9467000E9495001092240110922301CE
:10056000109219011092180110921B0110921A0199
:1005700089819A81AB81BC81883E9340A105B105F8
:1005800030F00E94B40119821A821B821C828D8174
:100590009E81AF81B8858C329140A105B10530F0C4
:1005A0000E946E011D821E821F82188689859A858F
:1005B000AB85BC850297A105B10530F00E941302FE
:1005C00019861A861B861C860E94EC010000809109
:1005D00012018823E1F31092120129813A814B81A3
:1005E0005C818D859E85AF85B889820F931FA41F7E
:1005F000B51F89839A83AB83BC832D813E814F8154
:1006000058858D859E85AF85B889820F931FA41F5D
:10061000B51F8D839E83AF83B88729853A854B8527
:100620005C858D859E85AF85B889820F931FA41F39
:10063000B51F89879A87AB87BC879ACFF894FFCF7D
:100640000100000000000002000000004501000061
:020650000000A8
:00000001FF
