:100000000C944F000C946E000C946E000C946E00D7
:100010000C946E000C946E000C946E000C946E00A8
:100020000C946E000C946E000C946E000C946E0098
:100030000C946E000C9474020C946E000C946E0080
:100040000C946E000C946E000C946E000C946E0078
:100050000C946E000C946E000C946E000C946E0068
:100060000C946E000C946E000C946E000C946E0058
:100070000C946E000C946E000C946E000C946E0048
:100080000C946E000C946E000C946E00F203FE0350
:100090002B0472048C047F049104A104D70411245E
:1000A0001FBECFEFD0E4DEBFCDBF11E0A0E0B1E0D6
:1000B000E0EFF2E100E00BBF02C007900D92A8371D
:1000C000B107D9F721E0A8E7B1E001C01D92A73A36
:1000D000B207E1F70E94EC050C9476090C9400003D
:1000E000CF93DF9300D01F92CDB7DEB789836A83A9
:1000F0004B838B81882371F08A81282F30E081E047
:1001000090E002C0880F991F2A95E2F7982F898105
:10011000892B0EC08A81282F30E081E090E002C058
:10012000880F991F2A95E2F7982F90958981892346
:100130000F900F900F90DF91CF910895CF93DF93A1
:1001400000D0CDB7DEB789836A838A81282F30E05B
:1001500081E090E002C0880F991F2A95E2F7982F5E
:10016000898189230F900F90DF91CF9108950F938C
:100170001F93CF93DF93CDB7DEB708E210E040E0E6
:1001800064E08FEF0E947000F8018083000086E237
:1001900090E0FC018081809560E00E949E008823B1
:1001A00011F081E3D3C086E290E0FC01808180956C
:1001B00061E00E949E00882311F084E3C7C086E2BC
:1001C00090E0FC018081809562E00E949E0088237F
:1001D00011F087E3BBC086E290E0FC01808180954E
:1001E00063E00E949E00882311F08AE2AFC008E21B
:1001F00010E040E065E08FEF0E947000F80180831E
:10020000000086E290E0FC018081809560E00E9421
:100210009E00882311F082E399C086E290E0FC0101
:100220008081809561E00E949E00882311F085E323
:100230008DC086E290E0FC018081809562E00E94A2
:100240009E00882311F088E381C086E290E0FC01E3
:100250008081809563E00E949E00882311F080E3F6
:1002600075C008E210E040E066E08FEF0E94700089
:10027000F8018083000086E290E0FC018081809597
:1002800060E00E949E00882311F083E35FC086E255
:1002900090E0FC018081809561E00E949E008823AF
:1002A00011F086E353C086E290E0FC0180818095E6
:1002B00062E00E949E00882311F089E347C086E235
:1002C00090E0FC018081809563E00E949E0088237D
:1002D00011F083E23BC008E210E040E067E08FEFFE
:1002E0000E947000F8018083000086E290E0FC012B
:1002F0008081809560E00E949E00882311F081E457
:1003000025C086E290E0FC018081809561E00E943A
:100310009E00882311F082E419C086E290E0FC017F
:100320008081809562E00E949E00882311F083E422
:100330000DC086E290E0FC018081809563E00E9420
:100340009E00882311F084E401C080E0DF91CF910A
:100350001F910F910895CF93DF93CDB7DEB72C9700
:100360000FB6F894DEBF0FBECDBF6D837E838F8343
:10037000988729873A874B875C878D819E81AF81DB
:10038000B88529853A854B855C85BC01CD010E94E5
:10039000B707DC01CB0189839A83AB83BC83898156
:1003A0009A81AB81BC81892B8A2B8B2B29F489857F
:1003B0009A85AB85BC8511C089859A85AB85BC853E
:1003C0008D839E83AF83B88789819A81AB81BC81FD
:1003D00089879A87AB87BC87D0CFBC01CD012C968B
:1003E0000FB6F894DEBF0FBECDBFDF91CF91089559
:1003F000CF93DF9300D000D0CDB7DEB769837A8387
:100400008B839C8389819A81AB81BC81809300011D
:1004100090930101A0930201B09303018091000128
:1004200090910101A0910201B091030180937901A3
:1004300090937A01A0937B01B0937C0100000F9010
:100440000F900F900F90DF91CF910895CF93DF938E
:10045000CDB7DEB781E890E02BE0FC01208388E88F
:1004600090E02DE730E0FC01318320838FE690E0BF
:1004700022E0FC01208384E890E0FC0111821082DC
:100480008091000190910101A0910201B0910301BE
:100490008093790190937A01A0937B01B0937C01C2
:1004A0008FE590E02FE530E0F90120812068FC0124
:1004B00020830000DF91CF910895CF93DF93CDB7D4
:1004C000DEB781E890E0FC0110820000DF91CF915F
:1004D0000895CF93DF93CDB7DEB781E080937801A5
:1004E0000000DF91CF9108951F920F9200905F005E
:1004F0000F92112400905B000F922F933F934F9324
:100500005F936F937F938F939F93AF93BF93EF937B
:10051000FF93CF93DF93CDB7DEB7809179019091B0
:100520007A01A0917B01B0917C010197A109B109E9
:100530008093790190937A01A0937B01B0937C0121
:100540008091790190917A01A0917B01B0917C0119
:10055000892B8A2B8B2B91F40E94690280910001D8
:1005600090910101A0910201B09103018093790162
:1005700090937A01A0937B01B0937C010000DF91FE
:10058000CF91FF91EF91BF91AF919F918F917F910B
:100590006F915F914F913F912F910F9000925B006F
:1005A0000F9000925F000F901F901895CF93DF93EC
:1005B00000D01F92CDB7DEB789837B836A838981A0
:1005C0008A3031F48A819B81BC018DE00E94D60281
:1005D00080EC90E0FC018081882F90E08072992768
:1005E000892BB1F386EC90E02981FC01208380E027
:1005F00090E00F900F900F90DF91CF9108950F939F
:100600001F93CF93DF9300D000D0CDB7DEB76983BF
:100610007A838B839C8380917D0190917E01A09150
:100620007F01B09180019C01AD0169817A818B814C
:100630009C810E94E207882309F476C020E030E024
:10064000A90169817A818B819C810E94E2078823BC
:1006500051F481E990E021E930E0F901208128702E
:10066000FC01208309C081E990E021E930E0F90133
:1006700020812360FC01208328E539E344E75FE320
:1006800069817A818B819C810E94E207882344F4EE
:1006900088E990E02FEF3FEFFC013183208334C0E5
:1006A00020E034E244EF56E469817A818B819C81B9
:1006B0000E940409181634F488E990E0FC011182C4
:1006C000108222C008E910E020E030E040E053E46E
:1006D00069817A818B819C810E940909DC01CB01AF
:1006E0009C01AD0160E074E284EF9AE40E94E707A8
:1006F000DC01CB01BC01CD010E945908DC01CB011A
:100700000197F8019183808386E490E0FC011082D8
:1007100089819A81AB81BC8180937D0190937E0118
:10072000A0937F01B093800100000F900F900F9075
:100730000F90DF91CF911F910F910895CF93DF9389
:10074000CDB7DEB780E990E020E4FC01208381E9A9
:1007500090E02BE0FC01208360E070E0CB010E9480
:10076000FF020000DF91CF910895CF93DF93CDB7C3
:10077000DEB780E990E0FC01108281E990E0FC01A5
:1007800010820000DF91CF910895CF93DF9300D0C6
:1007900000D0CDB7DEB79C838B830E94B7008983DE
:1007A00080E290E0FC018081882F90E081709927A1
:1007B00021E0892B09F020E02A838B819C81092E7E
:1007C000000CAA0BBB0B40E050E028E030E0841B9B
:1007D000950B2817390708F4F7C08A5B9F4FFC0177
:1007E0000C94D9071092A6011092A20181E0809387
:1007F000A50181E090E09C838B83ECC089818332EA
:1008000039F41092A60183E090E09C838B83DFC0D3
:100810008A81882371F08091A201882351F485E0B8
:1008200090E09C838B831092A50181E08093A201CC
:10083000CEC08A81882309F4CAC089818A3209F02E
:10084000C6C086E090E09C838B831092A60185E071
:100850008093A501BCC08091A6018430A8F480914A
:10086000A601882F90E08E5E9E4FFC0190818981C9
:10087000981751F48091A6018F5F8093A60183E0C1
:1008800090E09C838B832DC08091A6018430D1F4AD
:100890008091A601882F90E08E5E9E4FFC01908192
:1008A0008981981779F48091A6018F5F8093A601C2
:1008B00084E090E09C838B8381E08093A50110927B
:1008C000A2010FC08981882329F482E090E09C83F3
:1008D0008B8380C01092A50181E090E09C838B8384
:1008E00079C078C08981882329F083E090E09C83D7
:1008F0008B8370C082E090E09C838B836BC08A8185
:10090000882329F085E090E09C838B8363C081E09D
:1009100090E09C838B835EC081E090E09C838B831E
:1009200059C08A81882319F48981882329F086E0B7
:1009300090E09C838B834EC087E090E09C838B8308
:1009400049C08091A6018530D0F489818823B9F00F
:100950008091A601882F90E08E5E9E4F2981FC0138
:1009600020838091A6018F5F8093A60188E090E0AC
:100970009C838B838091A6018093A50117C08091F1
:10098000A601853040F48981882329F487E090E02E
:100990009C838B830BC08091A6018530D1F481E0CC
:1009A00090E09C838B831092A50113C012C08981B3
:1009B000882329F088E090E09C838B830BC087E03C
:1009C00090E09C838B8306C01C821B8203C00000C6
:1009D00001C000008B819C810F900F900F900F90B1
:1009E000DF91CF910895CF93DF9300D01F92CDB7C1
:1009F000DEB79B838A838A819B81892B19F01B82B6
:100A00001A8201C000008A819B81892B09F004C0F1
:100A10008091A5018983000085E290E02981FC0195
:100A200020838A819B810F900F900F90DF91CF914F
:100A30000895CF93DF9300D01F92CDB7DEB79B838D
:100A40008A8380E290E0FC018081809580788983B0
:100A50008A819B818230910531F1833091052CF49C
:100A6000009759F0019771F0ABC08330910509F4FC
:100A70005DC0049709F497C0A3C081E090E09B8318
:100A80008A83A2C08981882309F49DC082E090E016
:100A90009B838A831092A6011092A3011092A40155
:100AA0000E949E0390C08981882359F48091A301FC
:100AB000882339F081E090E09B838A830E94B5030C
:100AC00034C08981882359F08091A301882339F0AB
:100AD00084E090E09B838A830E94B50326C08091C6
:100AE000A3018823C1F48091A601882F90E08E593C
:100AF0009E4FFC0190818091A401981761F410929F
:100B0000A40160E070E0CB010E94FF0283E090E06E
:100B10009B838A830AC08091A4018F5F8093A40184
:100B200082E090E09B838A834FC04EC08091A601F3
:100B3000882F90E08D5A9E4FFC0190818091A401F6
:100B4000981739F51092A4018091A6018F5F8093C8
:100B5000A6018091A6018630A0F48091A601882F7D
:100B600090E0880F991F880F991F895E9E4FFC01A6
:100B700080819181A281B381BC01CD010E94FF02DD
:100B800003C081E08093A30182E090E09B838A838D
:100B90001BC08091A4018F5F8093A40183E090E04B
:100BA0009B838A8311C08981882329F084E090E0A7
:100BB0009B838A8309C081E090E09B838A8304C081
:100BC0001B821A8201C000008A819B810F900F90C6
:100BD0000F90DF91CF9108950F931F93CF93DF93E1
:100BE000CDB7DEB76A970FB6F894DEBF0FBECDBFA4
:100BF00081E290E0FC01108282E290E02FEFFC01A4
:100C0000208384E290E02FEFFC01208385E290E0D6
:100C1000FC01108287E290E020EFFC01208388E253
:100C200090E02FE0FC0120831092A5011092A20118
:100C300082E390E0A0E0B0E08B839C83AD83BE8331
:100C40008AE090E0A0E0B0E08F839887A987BA8718
:100C500088EC90E0A0E0B0E08B879C87AD87BE87F2
:100C600081E090E0A0E0B0E08F87988BA98BBA8BF1
:100C70002F81388549855A858B819C81AD81BE81C4
:100C8000BC01CD010E94AB01DC01CB018F87988BA9
:100C9000A98BBA8B2B853C854D855E858F85988980
:100CA000A989BA89BC01CD010E94AB01DC01CB014D
:100CB0008F87988BA98BBA8B8B819C81AD81BE81EC
:100CC0002F85388949895A89BC01CD010E94B7070F
:100CD000DA01C9018B839C83AD83BE838F819885A4
:100CE000A985BA852F85388949895A89BC01CD01E2
:100CF0000E94B707DA01C9018F839887A987BA874D
:100D00008B859C85AD85BE852F85388949895A8913
:100D1000BC01CD010E94B707DA01C9018B879C870E
:100D2000AD87BE8786E0E1E7F1E0DE0155960190F0
:100D30000D928A95E1F783E090E09C8B8B8B10926B
:100D400081018B819C81AD81BE81809382019093D2
:100D50008301A0938401B09385018B819C81AD8137
:100D6000BE818093860190938701A0938801B09300
:100D7000890185EC93E090938B0180938A01109216
:100D80008C018F819885A985BA8580938D01909378
:100D90008E01A0938F01B09390018F819885A985D2
:100DA000BA858093910190939201A0939301B0939F
:100DB000940183EF94E090939601809395011092B3
:100DC00097018B859C85AD85BE8580939801909316
:100DD0009901A0939A01B0939B018B859C85AD8569
:100DE000BE8580939C0190939D01A0939E01B0933A
:100DF0009F0189E195E09093A1018093A0018F85E7
:100E00009889A989BA89BC01CD010E94F8010E9484
:100E100026021A8219829BC089819A81880F991FA4
:100E20009E012F5F3F4F820F931F4496FC018081EC
:100E30009181FC01258136814781508589819A8184
:100E4000880F991FBE016F5F7F4F860F971F4496D3
:100E5000FC0180819181FC0181819281A381B48117
:100E6000281739074A075B0709F045C089819A812D
:100E7000880F991F9E012F5F3F4F820F931F44964B
:100E8000FC010081118189819A81880F991F9E013F
:100E90002F5F3F4F820F931F4496FC018081918109
:100EA000FC012185328589819A81880F991FAE01C5
:100EB0004F5F5F4F840F951F4496FC0180819181A5
:100EC000FC018081082E000C990BF9010995F801AD
:100ED000808389819A81880F991F9E012F5F3F4FE0
:100EE000820F931F4496FC0180819181FC01158241
:100EF00016821782108689819A81880F991F9E0118
:100F00002F5F3F4F820F931F4496FC012081318158
:100F100089819A81880F991FAE014F5F5F4F840FBF
:100F2000951F4496FC0180819181FC018581968109
:100F3000A781B0850196A11DB11DF9018583968316
:100F4000A783B08789819A8101969A8389832981B1
:100F50003A818B899C892817390708F45DCF0000F6
:100F6000809178018823E1F31092780152CFA1E2B9
:100F70001A2EAA1BBB1BFD010DC0AA1FBB1FEE1F13
:100F8000FF1FA217B307E407F50720F0A21BB30B5E
:100F9000E40BF50B661F771F881F991F1A9469F7DA
:100FA00060957095809590959B01AC01BD01CF0136
:100FB0000895EE0FFF1F0024001C0BBE0790F69152
:100FC000E02D09940E948F0808F481E008950E94A2
:100FD000FB070C94CA080E94C30858F00E94BC0882
:100FE00040F029F45F3F29F00C94B30851110C94A0
:100FF000FE080C94B9080E94DB0868F39923B1F34A
:10100000552391F3951B550BBB27AA27621773072E
:10101000840738F09F5F5F4F220F331F441FAA1FC2
:10102000A9F335D00E2E3AF0E0E832D0915050407E
:10103000E695001CCAF72BD0FE2F29D0660F771F2C
:10104000881FBB1F261737074807AB07B0E809F012
:10105000BB0B802DBF01FF2793585F4F3AF09E3F97
:10106000510578F00C94B3080C94FE085F3FE4F34C
:10107000983ED4F3869577956795B795F7959F5FDA
:10108000C9F7880F911D9695879597F90895E1E026
:10109000660F771F881FBB1F621773078407BA0785
:1010A00020F0621B730B840BBA0BEE1F88F7E095E0
:1010B00008950E9460086894B1110C94FE08089588
:1010C0000E94E30888F09F5798F0B92F9927B751ED
:1010D000B0F0E1F0660F771F881F991F1AF0BA95DC
:1010E000C9F714C0B13091F00E94FD08B1E0089535
:1010F0000C94FD08672F782F8827B85F39F0B93F27
:10110000CCF3869577956795B395D9F73EF490958E
:101110008095709561957F4F8F4F9F4F0895990FE0
:101120000008550FAA0BE0E8FEEF16161706E807B1
:10113000F907C0F012161306E407F50798F0621BD2
:10114000730B840B950B39F40A2661F0232B242BA7
:10115000252B21F408950A2609F4A140A6958FEFC6
:10116000811D811D089597F99F6780E870E060E018
:1011700008959FEF80EC089500240A941616170630
:1011800018060906089500240A9412161306140678
:1011900005060895092E0394000C11F4882352F0DB
:1011A000BB0F40F4BF2B11F460FF04C06F5F7F4F93
:1011B0008F4F9F4F089557FD9058440F551F59F07A
:1011C0005F3F71F04795880F97FB991F61F09F3F34
:1011D00079F087950895121613061406551FF2CF5D
:1011E0004695F1DF08C0161617061806991FF1CFAD
:1011F00086957105610508940895E894BB276627D4
:101200007727CB0197F908950E948F0808F48FEF94
:1012100008950E941C090C94CA080E94BC0838F06A
:101220000E94C30820F0952311F00C94B3080C948D
:10123000B90811240C94FE080E94DB0870F3959FF6
:10124000C1F3950F50E0551F629FF001729FBB27BD
:10125000F00DB11D639FAA27F00DB11DAA1F649F59
:101260006627B00DA11D661F829F2227B00DA11D0C
:10127000621F739FB00DA11D621F839FA00D611D92
:10128000221F749F3327A00D611D231F849F600DB3
:10129000211D822F762F6A2F11249F5750409AF0DC
:1012A000F1F088234AF0EE0FFF1FBB1F661F771F68
:1012B000881F91505040A9F79E3F510580F00C9433
:1012C000B3080C94FE085F3FE4F3983ED4F3869590
:1012D00077956795B795F795E7959F5FC1F7FE2BD3
:1012E000880F911D9695879597F90895F894FFCFEB
:1012F000010000000000000200000000D602000013
:101300000000313233343500000000A4D0A4437112
:101310009DAE430000C443719DAE430000C44371C1
:101320009DAE43A4D0A443A4D0A443A4D0A44371AD
:101330009DAE430000C443719DAE430000C44371A1
:101340009DAE430001010101010101010101010103
:10135000010100010101010101010101010101017E
:081360000181018C01970100DD
:00000001FF
