:100000000C9446000C9465000C9465000C946500FB
:100010000C9465000C9465000C9465000C946500CC
:100020000C9465000C9465000C9465000C946500BC
:100030000C9465000C94E3000C9465000C9465002E
:100040000C9465000C9465000C9465000C9465009C
:100050000C9465000C9465000C9465000C9465008C
:100060000C9465000C9465000C9465000C9465007C
:100070000C9465000C9465000C9465000C9465006C
:100080000C9465000C9465000C94650011241FBE4F
:10009000CFEFD0E4DEBFCDBF11E0A0E0B1E0ECECEB
:1000A000F1E200E00BBF02C007900D92AE31B10744
:1000B000D9F721E0AEE1B1E001C01D92A238B2074C
:1000C000E1F70E947A0D0C94E4100C940000CF9399
:1000D000DF9300D000D0CDB7DEB769837A838B83FE
:1000E0009C8389819A81AB81BC818093000190932C
:1000F0000101A0930201B09303018091000190914E
:100100000101A0910201B091030180931F0190931E
:100110002001A0932101B093220100000F900F90C5
:100120000F900F90DF91CF910895CF93DF93CDB7CC
:10013000DEB781E890E02BE0FC01208388E890E0C6
:100140002DE730E0FC01318320838FE690E022E050
:10015000FC01208384E890E0FC01118210828091F0
:10016000000190910101A0910201B09103018093DF
:100170001F0190932001A0932101B09322018FE5EC
:1001800090E02FE530E0F90120812068FC01208318
:100190000000DF91CF910895CF93DF93CDB7DEB705
:1001A00081E890E0FC0110820000DF91CF9108957A
:1001B000CF93DF93CDB7DEB781E080931E010000BF
:1001C000DF91CF9108951F920F9200905F000F92E0
:1001D000112400905B000F922F933F934F935F93F6
:1001E0006F937F938F939F93AF93BF93EF93FF93FF
:1001F000CF93DF93CDB7DEB780911F01909120019F
:10020000A0912101B09122010197A109B109809328
:100210001F0190932001A0932101B09322018091AE
:100220001F0190912001A0912101B0912201892B01
:100230008A2B8B2B91F40E94D80080910001909121
:100240000101A0910201B091030180931F019093DD
:100250002001A0932101B09322010000DF91CF91F2
:10026000FF91EF91BF91AF919F918F917F916F918E
:100270005F914F913F912F910F9000925B000F90F3
:1002800000925F000F901F901895CF93DF93CDB72A
:10029000DEB72C970FB6F894DEBF0FBECDBF6D83CF
:1002A0007E838F83988729873A874B875C878D81E8
:1002B0009E81AF81B88529853A854B855C85BC01D7
:1002C000CD010E941310DC01CB0189839A83AB839B
:1002D000BC8389819A81AB81BC81892B8A2B8B2B32
:1002E00029F489859A85AB85BC8511C089859A8555
:1002F000AB85BC858D839E83AF83B88789819A81C6
:10030000AB81BC8189879A87AB87BC87D0CFBC0182
:10031000CD012C960FB6F894DEBF0FBECDBFDF9196
:10032000CF910895CF93DF9300D01F92CDB7DEB762
:1003300089837B836A8389818A3031F48A819B81B6
:10034000BC018DE00E94920180EC90E0FC01808174
:10035000882F90E080729927892BB1F386EC90E08A
:100360002981FC01208380E090E00F900F900F9096
:10037000DF91CF910895CF93DF9300D01F92CDB737
:10038000DEB78B831A82198227C088E290E028E0CA
:10039000FC01208388E290E028E230E0F90120812E
:1003A000422F2B81222F30E0098002C035952795FE
:1003B0000A94E2F72170242BFC01208388E290E06C
:1003C00028E230E0F90120812260FC01208389814C
:1003D0009A8101969A83898389819A810897ACF2E0
:1003E00088E290E028E230E0F90120812460FC01FD
:1003F000208388E290E0FC01108200000F900F90B3
:100400000F90DF91CF910895CF93DF93CDB7DEB7F3
:100410008AE790E02AE730E0F9012081206EFC01B4
:1004200020830000DF91CF910895CF93DF9300D018
:10043000CDB7DEB78A8319828A81813019F48EEFB5
:1004400089830BC08A81823019F48DEF898305C0BE
:100450008A81833011F48BEF898389810F900F900B
:10046000DF91CF910895CF93DF9300D0CDB7DEB762
:100470009A83898380E290E0FC018081882F90E05C
:100480008170992721E0892B09F020E0822F809349
:10049000230180E290E0FC0180818095827080934E
:1004A000240189819A8181309105B9F082309105CA
:1004B00009F458C0892B09F067C081E0809352018C
:1004C00081EF8093620182E080937B011092510161
:1004D00081E090E09A8389835BC081E08093520140
:1004E000809123018823D1F0809124018823B1F4E5
:1004F00080917B01833090F480916201882F90E09D
:10050000880F991F81608093620180917B018F5FCA
:1005100080937B0181E0809351011DC08091230174
:100520008823B9F480912401882399F080917B017C
:10053000823078F0809162018695806880936201B4
:1005400080917B01815080937B0181E080935101F8
:1005500002C010925101809156018823C1F01A8285
:10056000198215C080912301882321F480912401F0
:10057000882329F082E090E09A83898309C081E092
:1005800090E09A83898304C01A82198201C0000016
:1005900089819A810F900F90DF91CF910895CF9329
:1005A000DF9300D0CDB7DEB79A83898389819A81A2
:1005B000009719F0019789F05EC080E88093700180
:1005C00081EF80936C0182E080936501109272014B
:1005D00081E090E09A83898352C080915801909184
:1005E00059019C01285D3F4F80915B0190915C0116
:1005F00028173907B0F480916501833090F4809119
:100600006C01882F90E0880F991F816080936C01A6
:10061000809165018F5F8093650181E08093720115
:1006200023C080915801909159019C0128523109B1
:1006300080915B0190915C018217930798F48091FF
:100640006501823078F080916C0186958068809396
:100650006C018091650181508093650181E08093F8
:10066000720102C01092720180915601882331F00C
:100670001A82198203C01A82198201C0000089817E
:100680009A810F900F90DF91CF910895CF93DF93D0
:1006900000D0CDB7DEB79A83898389819A8100978C
:1006A00019F0019789F060C080E88093700181EFB4
:1006B00080936C0182E0809365011092720181E069
:1006C00090E09A83898354C080917301863009F049
:1006D00044C080916B01882309F43FC08091770169
:1006E000909178010497B8F1109272019091650190
:1006F00080917601981798F480916501823078F0A6
:1007000080916C018695806880936C018091650171
:1007100081508093650181E0809372011EC09091A9
:100720006501809176019817C0F080916501833052
:10073000A0F480916C01882F90E0880F991F816050
:1007400080936C01809165018F5F8093650181E0EA
:100750008093720102C01092720180915601882329
:1007600031F01A82198203C01A82198201C0000076
:1007700089819A810F900F90DF91CF910895CF9347
:10078000DF9300D0CDB7DEB79A83898380917B0158
:100790000E94150280935E0180915E01882F90E097
:1007A000880F991F816080935F0180915F01882F7E
:1007B00090E0880F991F81608093600180916501AE
:1007C0000E9415028093530180915301882F90E07D
:1007D000880F991F81608093540180915401882F64
:1007E00090E0880F991F81608093550180E290E02E
:1007F000FC018081809584708093710180E290E09B
:10080000FC018081809588708093570189819A814D
:100810008130910509F441C08230910511F40C94A6
:10082000600C892B11F00C94790C8BEF809376017E
:1008300088E080935A010E94941081709927892B37
:1008400021F481E080936B0102C010926B01109241
:100850005D011092750183E08093740184E08093C0
:10086000730110927A011092560110926301109256
:10087000610180917101882331F081E090E09A83D9
:1008800089830C947C0C80917101882311F00C9465
:100890007C0C1A8219820C947C0C80916B01882349
:1008A00009F4FCC380915D01882309F466C180913D
:1008B0007501882309F061C180917301873008F0C8
:1008C0005AC0809174018530A8F580917601882FF7
:1008D00090E0880F991F8160809376018091740168
:1008E0008F5F8093740180916101882391F08091E2
:1008F0007401853070F480917601882F90E0880F24
:10090000991F816080937601809174018F5F80933D
:10091000740180915A01880F80935A01809173016C
:100920008F5F8093730181E080935D011092750168
:100930000C944C0C80917401853009F0ADC7109275
:100940005D0181E0809375018091760186958068D4
:10095000809376018091740181508093740180911D
:100960005A01880F80935A01809173018F5F8093A1
:1009700073010C944C0C80917301873009F08CC783
:1009800090915301809176019817E1F5809174015F
:10099000823088F080917601869580688093760118
:1009A0008091740181508093740110925D0181E007
:1009B0008093750117C080917401813099F4809102
:1009C0007601882F90E0880F991F816080937601CF
:1009D000809174018F5F8093740181E080935D0149
:1009E0001092750110927A0181E0809363018091E9
:1009F0007201882321F081E080936101A2C01092EE
:100A000061019FC09091540180917601981709F07F
:100A100053C080915D01882349F48091750188233A
:100A200029F410925D011092750134C080915D012E
:100A30008823C1F0809175018823A1F4809176010B
:100A4000882F90E0880F991F8160809376018091B4
:100A500074018F5F8093740181E080935D01109237
:100A6000750118C080915D018823A1F48091750102
:100A7000882381F080917601869580688093760145
:100A80008091740181508093740110925D0181E026
:100A90008093750110927A01109263018091720126
:100AA000882339F081E08093610181E080936301C4
:100AB00048C01092610145C0909155018091760126
:100AC0009817E1F5809174018530A0F4809176014A
:100AD000882F90E0880F991F816080937601809124
:100AE00074018F5F8093740181E080935D011092A7
:100AF000750114C080917401853081F48091760174
:100B000086958068809376018091740181508093EE
:100B1000740110925D0181E08093750110927A0159
:100B200081E08093630180917201882321F081E04C
:100B30008093610106C01092610103C081E080933F
:100B40007A0180917A01882369F410926B01809177
:100B50005A01869580935A01809173018150809348
:100B600073019AC61A821982809164018F5F809303
:100B7000640181E0809356018FC6809175018823BE
:100B800009F456C180915D01882309F051C180911B
:100B90007301873008F04AC080917401823020F1DF
:100BA00080917601869580688093760180917401AA
:100BB00081508093740180916101882379F0809144
:100BC0007401853058F48091760186958068809311
:100BD00076018091740181508093740110925D01BF
:100BE00081E08093750117C080917401813099F480
:100BF00081E080935D011092750180917601882FCC
:100C000090E0880F991F8160809376018091740134
:100C10008F5F8093740180915A01880F80935A01ED
:100C2000809173018F5F8093730138C68091730147
:100C3000873009F033C6909153018091760198175F
:100C4000E1F580917401823088F08091760186957B
:100C50008068809376018091740181508093740143
:100C600010925D0181E08093750117C0809174013D
:100C7000813099F481E080935D011092750180913B
:100C80007601882F90E0880F991F8160809376010C
:100C9000809174018F5F8093740110927A0181E0DA
:100CA0008093630180917201882321F081E0809319
:100CB0006101A2C0109261019FC090915401809186
:100CC0007601981709F053C080915D01882349F49B
:100CD00080917501882329F410925D0110927501AD
:100CE00034C080915D018823C1F080917501882313
:100CF000A1F480917601882F90E0880F991F816080
:100D000080937601809174018F5F8093740181E0FC
:100D100080935D011092750118C080915D01882358
:100D2000A1F480917501882381F0809176018695E8
:100D30008068809376018091740181508093740162
:100D400010925D0181E08093750110927A011092FA
:100D5000630180917201882339F081E08093610101
:100D600081E08093630148C01092610145C0909179
:100D70005501809176019817E1F5809174018530D5
:100D8000A0F480917601882F90E0880F991F8160F0
:100D900080937601809174018F5F8093740181E06C
:100DA00080935D011092750114C0809174018530AB
:100DB00081F4809176018695806880937601809198
:100DC000740181508093740110925D0181E08093E1
:100DD000750110927A0181E0809363018091720124
:100DE000882321F081E08093610106C010926101A7
:100DF00003C081E080937A0180917A01882369F4AD
:100E000010926B0180915A01869580935A018091CE
:100E1000730181508093730141C51A8219828091B8
:100E200064018F5F8093640181E08093560136C531
:100E300080915D01882309F036C580917501882372
:100E400009F031C580917301873078F480915A019F
:100E5000880F80935A01809173018F5F8093730193
:100E600010925D01109275011EC58091730187304B
:100E700009F019C590915301809176019817E1F519
:100E800080917401823088F0809176018695806827
:100E90008093760180917401815080937401109247
:100EA0005D0181E08093750117C0809174018130EC
:100EB00099F481E080935D01109275018091760133
:100EC000882F90E0880F991F816080937601809130
:100ED00074018F5F8093740110927A0181E0809396
:100EE000630180917201882321F081E08093610188
:100EF000B9C010926101B6C0909154018091760101
:100F0000981709F06AC080915D01882349F48091A7
:100F10007501882329F410925D011092750134C087
:100F200080915D018823C1F0809175018823A1F42F
:100F300080917601882F90E0880F991F81608093BF
:100F40007601809174018F5F8093740181E08093BA
:100F50005D011092750118C080915D018823A1F494
:100F600080917501882381F0809176018695806853
:100F70008093760180917401815080937401109266
:100F80005D0181E08093750110927A0110926301F6
:100F900080917201882361F080915D01882341F482
:100FA00080917501882321F481E0809363015AC008
:100FB00080917201882309F455C080915D018823D6
:100FC00029F480917501882309F44CC081E0809355
:100FD000610181E08093630145C09091550180914A
:100FE00076019817E1F5809174018530A0F4809125
:100FF0007601882F90E0880F991F81608093760199
:10100000809174018F5F8093740181E080935D0112
:101010001092750114C080917401853081F4809123
:101020007601869580688093760180917401815065
:101030008093740110925D0181E08093750110929C
:101040007A0181E08093630180917201882321F00D
:1010500081E08093610106C01092610103C081E0CC
:1010600080937A0180917A01882369F410926B0150
:1010700080915A01869580935A0180917301815025
:101080008093730110C41A821982809164018F5F6A
:101090008093640181E08093560105C480916B01C7
:1010A000882309F000C480915D01882309F465C19B
:1010B00080917501882309F060C1809173018330AC
:1010C00008F458C0809174018530A0F580917601B4
:1010D000882F90E0880F991F81608093760180911E
:1010E00074018F5F8093740180916101882391F076
:1010F00080917401853070F480917601882F90E0A2
:10110000880F991F816080937601809174018F5FB1
:101110008093740180915A01869580935A01809141
:10112000730181508093730181E080935D0110927F
:101130007501B6C380917401853009F0B1C3109276
:101140005D0181E0809375018091760186958068CC
:101150008093760180917401815080937401809115
:101160005A01869580935A01809173018150809332
:10117000730196C380917301823009F091C39091FD
:101180005E01809176019817E1F5809174018230BB
:1011900088F08091760186958068809376018091B1
:1011A000740181508093740110925D0181E08093FD
:1011B000750117C080917401813099F48091760196
:1011C000882F90E0880F991F81608093760180912D
:1011D00074018F5F8093740181E080935D011092B0
:1011E000750110927A0181E0809363018091510131
:1011F000882321F081E080936101A2C010926101F7
:101200009FC090915F0180917601981709F053C0BB
:1012100080915D01882349F480917501882329F428
:1012200010925D011092750134C080915D01882398
:10123000C1F0809175018823A1F480917601882FF7
:1012400090E0880F991F81608093760180917401EE
:101250008F5F8093740181E080935D01109275012E
:1012600018C080915D018823A1F4809175018823C5
:1012700081F08091760186958068809376018091D7
:10128000740181508093740110925D0181E080931C
:10129000750110927A0110926301809151018823A7
:1012A00039F081E08093610181E08093630148C05F
:1012B0001092610145C0909160018091760198176C
:1012C000E1F5809174018530A0F480917601882F3A
:1012D00090E0880F991F816080937601809174015E
:1012E0008F5F8093740181E080935D01109275019E
:1012F00014C080917401853081F4809176018695C7
:10130000806880937601809174018150809374018C
:1013100010925D0181E08093750110927A0181E065
:101320008093630180915101882321F081E08093B3
:10133000610106C01092610103C081E080937A01CF
:1013400080917A01882371F481E080936B01809110
:101350005A01880F80935A01809173018F5F8093A7
:1013600073019EC21A821982809166018F5F8093F9
:10137000660181E08093560193C2809175018823B4
:1013800009F457C180915D01882309F052C1809111
:101390007301833008F44AC080917401823020F1D7
:1013A00080917601869580688093760180917401A2
:1013B00081508093740180916101882379F080913C
:1013C0007401853058F48091760186958068809309
:1013D00076018091740181508093740110925D01B7
:1013E00081E08093750117C080917401813099F478
:1013F00081E080935D011092750180917601882FC4
:1014000090E0880F991F816080937601809174012C
:101410008F5F8093740180915A01869580935A0161
:10142000809173018150809373013CC2809173015C
:10143000823009F037C290915E0180917601981751
:10144000E1F580917401823088F080917601869573
:10145000806880937601809174018150809374013B
:1014600010925D0181E08093750117C08091740135
:10147000813099F481E080935D0110927501809133
:101480007601882F90E0880F991F81608093760104
:10149000809174018F5F8093740110927A0181E0D2
:1014A0008093630180915101882321F081E0809332
:1014B0006101A2C0109261019FC090915F01809173
:1014C0007601981709F053C080915D01882349F493
:1014D00080917501882329F410925D0110927501A5
:1014E00034C080915D018823C1F08091750188230B
:1014F000A1F480917601882F90E0880F991F816078
:1015000080937601809174018F5F8093740181E0F4
:1015100080935D011092750118C080915D01882350
:10152000A1F480917501882381F0809176018695E0
:10153000806880937601809174018150809374015A
:1015400010925D0181E08093750110927A011092F2
:10155000630180915101882339F081E0809361011A
:1015600081E08093630148C01092610145C0909171
:101570006001809176019817E1F5809174018530C2
:10158000A0F480917601882F90E0880F991F8160E8
:1015900080937601809174018F5F8093740181E064
:1015A00080935D011092750114C0809174018530A3
:1015B00081F4809176018695806880937601809190
:1015C000740181508093740110925D0181E08093D9
:1015D000750110927A0181E080936301809151013D
:1015E000882321F081E08093610106C0109261019F
:1015F00003C081E080937A0180917A01882371F49D
:1016000081E080936B0180915A01880F80935A0189
:10161000809173018F5F8093730144C11A82198294
:10162000809166018F5F8093660181E0809356010F
:1016300039C180915D01882309F035C18091750120
:10164000882309F030C180917301833058F0809174
:101650005A01869580935A0180917301815080933D
:10166000730121C180917301823009F01CC19091F6
:101670005E01809176019817E1F5809174018230C6
:1016800088F08091760186958068809376018091BC
:10169000740181508093740110925D0181E0809308
:1016A000750117C080917401813099F481E08093B5
:1016B0005D011092750180917601882F90E0880F6E
:1016C000991F816080937601809174018F5F809370
:1016D000740110927A0181E080936301809151013D
:1016E000882321F081E080936101B9C010926101EB
:1016F000B6C090915F0180917601981709F06AC099
:1017000080915D01882349F480917501882329F433
:1017100010925D011092750134C080915D018823A3
:10172000C1F0809175018823A1F480917601882F02
:1017300090E0880F991F81608093760180917401F9
:101740008F5F8093740181E080935D011092750139
:1017500018C080915D018823A1F4809175018823D0
:1017600081F08091760186958068809376018091E2
:10177000740181508093740110925D0181E0809327
:10178000750110927A0110926301809151018823B2
:1017900061F080915D01882341F480917501882377
:1017A00021F481E0809363015AC080915101882324
:1017B00009F455C080915D01882329F48091750159
:1017C000882309F44CC081E08093630181E0809319
:1017D000610145C090916001809176019817E1F513
:1017E000809174018530A0F480917601882F90E07B
:1017F000880F991F816080937601809174018F5FBB
:101800008093740181E080935D011092750114C092
:1018100080917401853081F480917601869580688D
:1018200080937601809174018150809374011092AD
:101830005D0181E08093750110927A0181E08093CF
:10184000630180915101882321F081E0809361013F
:1018500006C01092610103C081E080937A018091FB
:101860007A01882371F481E080936B0180915A01A1
:10187000880F80935A01809173018F5F8093730169
:1018800012C01A821982809166018F5F809366016F
:1018900081E08093560107C0000005C0000003C02E
:1018A000000001C0000080916D01882321F4809127
:1018B0007901882319F182E090E09A8389831EC020
:1018C00080915701882371F081E080935601109236
:1018D00064011092660110926D01109279011A82D2
:1018E00019820DC01092560182E090E09A8389839C
:1018F00006C01A82198203C0000001C0000089815D
:101900009A810F900F90DF91CF910895CF93DF933D
:1019100000D0CDB7DEB79A83898389819A818230DE
:10192000910551F1833091052CF4009759F00197FE
:10193000B1F0B1C08330910509F452C0049709F4A5
:1019400094C0A9C08091520180937D018091620171
:101950008093680181E090E09A838983A2C080919E
:10196000700180937D0180916C018093680182E019
:1019700090E09A83898395C080915A0180937D017C
:1019800080917601809368011A82198280916401A6
:10199000833081F480916601833060F481E080932C
:1019A0006D011092790110926A0183E090E09A83B0
:1019B000898374C080916401833008F06FC0809186
:1019C0006601833009F06AC081E08093790110924A
:1019D0006D0110926A0183E090E09A8389835EC072
:1019E00080916D018823B9F080916A01843660F49A
:1019F00080916A018F5F80936A0181E080937D010D
:101A000080EE809368014CC010926A0184E090E0FF
:101A10009A83898345C0809179018823B9F08091A8
:101A20006A01843660F480916A018F5F80936A0155
:101A300080E880937D0180EE8093680131C0109230
:101A40006A0184E090E09A8389832AC080916D01C5
:101A5000882331F580917901882311F58091560111
:101A60008823F1F01A8219821BC080916A018436A2
:101A700058F480916A018F5F80936A0110927D0112
:101A800080EE809368010DC010926A0183E090E0BF
:101A90009A83898306C01A82198203C0000001C09C
:101AA000000080917D010E94BB018BE290E02091BB
:101AB0006801FC0120838091640180936901809119
:101AC0006601882F90E0880F991F880F991F982F23
:101AD00080916901892B8093690185E290E02091D2
:101AE0006901FC01208389819A810F900F90DF9119
:101AF000CF9108950F931F93CF93DF93CDB7DEB7A8
:101B0000A0970FB6F894DEBF0FBECDBF8AE290E07B
:101B10002FEFFC0120838BE290E0FC01108287E232
:101B200090E02FEFFC01208388E290E0FC0110821E
:101B300084E290E02FEFFC01208385E290E0FC013D
:101B4000108281E290E0FC01108282E290E02FEFAF
:101B5000FC01208382E08093650180916501809380
:101B60007B0181E08093520181EF8093620180E8E4
:101B70008093700181EF80936C018BEF80937601ED
:101B800082E080935A0110927901809179018093CB
:101B90006D01109263011092610180E090E00E945B
:101BA000EC0FDC01CB010E9498101092660180912D
:101BB00066018093640184E690E0A0E0B0E08B834E
:101BC0009C83AD83BE8386E990E0A0E0B0E08F8384
:101BD0009887A987BA8784E690E0A0E0B0E08B8779
:101BE0009C87AD87BE8781E090E0A0E0B0E08F8762
:101BF000988BA98BBA8B81E090E0A0E0B0E08B8B52
:101C00009C8BAD8BBE8B8B819C81AD81BE812B89E2
:101C10003C894D895E89BC01CD010E941310DA0117
:101C2000C9018B839C83AD83BE838F819885A985F1
:101C3000BA852B893C894D895E89BC01CD010E9402
:101C40001310DA01C9018F839887A987BA878F8516
:101C50009889A989BA892B893C894D895E89BC01FB
:101C6000CD010E941310DA01C9018F87988BA98BCF
:101C7000BA8B8B859C85AD85BE852B893C894D892A
:101C80005E89BC01CD010E941310DA01C9018B8766
:101C90009C87AD87BE8788E0E6E1F1E0DE015996DA
:101CA00001900D928A95E1F784E090E0988F8F8BF8
:101CB0008FEF809325018B819C81AD81BE818093C4
:101CC000260190932701A0932801B09329018B81CD
:101CD0009C81AD81BE8180932A0190932B01A093BA
:101CE0002C01B0932D0183E392E090932F01809318
:101CF0002E018FEF809330018F819885A985BA8559
:101D00008093310190933201A0933301B093340159
:101D10008F819885A985BA85809335019093360186
:101D2000A0933701B09338018FEB93E090933A0181
:101D3000809339018FEF80933B018B859C85AD8526
:101D4000BE8580933C0190933D01A0933E01B093EA
:101D50003F018B859C85AD85BE8580934001909326
:101D60004101A0934201B09343018FEC92E0909324
:101D70004501809344018FEF809346018F859889B8
:101D8000A989BA898093470190934801A09349019A
:101D9000B0934A018F859889A989BA8980934B01AC
:101DA00090934C01A0934D01B0934E0186E89CE0C6
:101DB0009093500180934F010E9404028B899C896B
:101DC000AD89BE89BC01CD010E9467000E949500CB
:101DD00088E790E0FC018081918190935901809384
:101DE00058010E9494102AE030E0B9010E94FF0FD0
:101DF000909378018093770188E790E0FC018081DF
:101E0000918190935C0180935B01809163018823B1
:101E1000C9F084E690E0A0E0B0E0809331019093B7
:101E20003201A0933301B093340184E690E0A0E046
:101E3000B0E08093350190933601A0933701B093C1
:101E400038011CC0809163018823C1F48F8198857B
:101E5000A985BA858093310190933201A093330113
:101E6000B09334018F819885A985BA858093350117
:101E700090933601A0933701B09338011A821982EA
:101E80009BC089819A81880F991F9E012F5F3F4FC8
:101E9000820F931F4896FC0180819181FC0125816E
:101EA00036814781508589819A81880F991FBE01AB
:101EB0006F5F7F4F860F971F4896FC01808191814D
:101EC000FC0181819281A381B481281739074A07D7
:101ED0005B0709F045C089819A81880F991F9E018F
:101EE0002F5F3F4F820F931F4896FC0100811181A5
:101EF00089819A81880F991F9E012F5F3F4F820F22
:101F0000931F4896FC0180819181FC0121853285D7
:101F100089819A81880F991FAE014F5F5F4F840FAF
:101F2000951F4896FC0180819181FC018081082EDB
:101F3000000C990BF9010995F801808389819A8138
:101F4000880F991F9E012F5F3F4F820F931F489666
:101F5000FC0180819181FC01158216821782108616
:101F600089819A81880F991F9E012F5F3F4F820FB1
:101F7000931F4896FC012081318189819A81880FC5
:101F8000991FAE014F5F5F4F840F951F4896FC016C
:101F900080819181FC0185819681A781B085019620
:101FA000A11DB11DF90185839683A783B08789811F
:101FB0009A8101969A83898329813A818F89988DA4
:101FC0002817390708F45DCF000080911E0188238F
:101FD000E1F310921E0105CFFC010FB6F894609159
:101FE0007E0170917F0180918001909181010FBEEF
:101FF000309721F06083718382839383089597FBE8
:10200000072E16F4009407D077FD09D00E943510F2
:1020100007FC05D03EF4909581959F4F08957095EB
:1020200061957F4F0895A1E21A2EAA1BBB1BFD01EB
:102030000DC0AA1FBB1FEE1FFF1FA217B307E407A7
:10204000F50720F0A21BB30BE40BF50B661F771FFF
:10205000881F991F1A9469F76095709580959095DF
:102060009B01AC01BD01CF010895AA1BBB1B51E12F
:1020700007C0AA1FBB1FA617B70710F0A61BB70BF8
:10208000881F991F5A95A9F780959095BC01CD019D
:1020900008958F929F92AF92BF92CF92DF92EF926C
:1020A000FF92CF93DF93EC01688179818A819B81D4
:1020B000611571058105910521F464E279ED8BE5E7
:1020C00097E02DE133EF41E050E00E94A310490179
:1020D0005A019B01AC01A7EAB1E40E94C2106B0156
:1020E0007C01ACEEB4EFA50194010E94D010DC019C
:1020F000CB018C0D9D1DAE1DBF1DB7FF03C0019709
:10210000A109B04888839983AA83BB839F77DF9115
:10211000CF91FF90EF90DF90CF90BF90AF909F90C6
:102120008F9008950C94491082E191E00C9449102D
:10213000A0E0B0E08093120190931301A0931401EA
:10214000B09315010895052E97FB1EF400940E948C
:10215000BA1057FD07D00E94131007FC03D04EF4AD
:102160000C94BA1050954095309521953F4F4F4FA4
:102170005F4F089590958095709561957F4F8F4F33
:102180009F4F08950E94D510A59F900DB49F900D6C
:10219000A49F800D911D11240895B7FF0C94C210C7
:1021A0000E94C210821B930B0895A29FB001B39F9F
:1021B000C001A39F700D811D1124911DB29F700D50
:0C21C000811D1124911D0895F894FFCF9B
:1021CC00010000000000000200000000920100006D
:0E21DC00000001000000250130013B0146011A
:00000001FF
